:0100000000FF
:0100010000FE
:0100020000FD
:0100030000FC
:0100040000FB
:0100050000FA
:0100060000F9
:0100070000F8
:0100080000F7
:0100090000F6
:01000A0000F5
:01000B0000F4
:01000C0000F3
:01000D0000F2
:01000E0000F1
:01000F0000F0
:0100100000EF
:0100110000EE
:0100120000ED
:0100130000EC
:0100140000EB
:0100150000EA
:0100160000E9
:0100170000E8
:0100180000E7
:0100190000E6
:01001A0000E5
:01001B0000E4
:01001C0000E3
:01001D0000E2
:01001E0000E1
:01001F0000E0
:0100200000DF
:0100210000DE
:0100220000DD
:0100230000DC
:0100240000DB
:0100250000DA
:0100260000D9
:0100270000D8
:0100280000D7
:0100290000D6
:01002A0000D5
:01002B0000D4
:01002C0000D3
:01002D0000D2
:01002E0000D1
:01002F0000D0
:0100300000CF
:0100310000CE
:0100320000CD
:0100330000CC
:0100340000CB
:0100350000CA
:0100360000C9
:0100370000C8
:0100380000C7
:0100390000C6
:01003A0000C5
:01003B0000C4
:01003C0000C3
:01003D0000C2
:01003E0000C1
:01003F0000C0
:0100400000BF
:0100410000BE
:0100420000BD
:0100430000BC
:0100440000BB
:0100450000BA
:0100460000B9
:0100470000B8
:0100480000B7
:0100490000B6
:01004A0000B5
:01004B0000B4
:01004C0000B3
:01004D0000B2
:01004E0000B1
:01004F0000B0
:0100500000AF
:0100510000AE
:0100520000AD
:0100530000AC
:0100540000AB
:0100550000AA
:0100560000A9
:0100570000A8
:0100580000A7
:0100590000A6
:01005A0000A5
:01005B0000A4
:01005C0000A3
:01005D0000A2
:01005E0000A1
:01005F0000A0
:01006000009F
:01006100009E
:01006200009D
:01006300009C
:01006400009B
:01006500009A
:010066000099
:010067000098
:010068000097
:010069000096
:01006A000095
:01006B000094
:01006C000093
:01006D000092
:01006E000091
:01006F000090
:01007000008F
:01007100008E
:01007200008D
:01007300008C
:01007400008B
:01007500008A
:010076000089
:010077000088
:010078000087
:010079000086
:01007A000085
:01007B000084
:01007C000083
:01007D000082
:01007E000081
:01007F000080
:01008000007F
:01008100007E
:01008200007D
:01008300007C
:01008400007B
:01008500007A
:010086000079
:010087000078
:010088000077
:010089000076
:01008A000075
:01008B000074
:01008C000073
:01008D000072
:01008E000071
:01008F000070
:01009000006F
:01009100006E
:01009200006D
:01009300006C
:01009400006B
:01009500006A
:010096000069
:010097000068
:010098000067
:010099000066
:01009A000065
:01009B000064
:01009C000063
:01009D000062
:01009E000061
:01009F000060
:0100A000005F
:0100A100005E
:0100A200005D
:0100A300005C
:0100A400005B
:0100A500005A
:0100A6000059
:0100A7000058
:0100A8000057
:0100A9000056
:0100AA000055
:0100AB000054
:0100AC000053
:0100AD000052
:0100AE000051
:0100AF000050
:0100B000004F
:0100B100004E
:0100B200004D
:0100B300004C
:0100B400004B
:0100B500004A
:0100B6000049
:0100B7000048
:0100B8000047
:0100B9000046
:0100BA000045
:0100BB000044
:0100BC000043
:0100BD000042
:0100BE000041
:0100BF000040
:0100C000003F
:0100C100003E
:0100C200003D
:0100C300003C
:0100C400003B
:0100C500003A
:0100C6000039
:0100C7000038
:0100C8000037
:0100C9000036
:0100CA000035
:0100CB000034
:0100CC000033
:0100CD000032
:0100CE000031
:0100CF000030
:0100D000002F
:0100D100002E
:0100D200002D
:0100D300002C
:0100D400002B
:0100D500002A
:0100D6000029
:0100D7000028
:0100D8000027
:0100D9000026
:0100DA000025
:0100DB000024
:0100DC000023
:0100DD000022
:0100DE000021
:0100DF000020
:0100E000001F
:0100E100001E
:0100E200001D
:0100E300001C
:0100E400001B
:0100E500001A
:0100E6000019
:0100E7000018
:0100E8000017
:0100E9000016
:0100EA000015
:0100EB000014
:0100EC000013
:0100ED000012
:0100EE000011
:0100EF000010
:0100F000000F
:0100F100000E
:0100F200000D
:0100F300000C
:0100F400000B
:0100F500000A
:0100F6000009
:0100F7000008
:0100F8000007
:0100F9000006
:0100FA000005
:0100FB000004
:0100FC000003
:0100FD000002
:0100FE000001
:0100FF000000
:0101000000FE
:0101010000FD
:0101020000FC
:0101030000FB
:0101040000FA
:0101050000F9
:0101060000F8
:0101070000F7
:0101080000F6
:0101090000F5
:01010A0000F4
:01010B0000F3
:01010C0000F2
:01010D0000F1
:01010E0000F0
:01010F0000EF
:0101100000EE
:0101110000ED
:0101120000EC
:0101130000EB
:0101140000EA
:0101150000E9
:0101160000E8
:0101170000E7
:0101180000E6
:0101190000E5
:01011A0000E4
:01011B0000E3
:01011C0000E2
:01011D0000E1
:01011E0000E0
:01011F0000DF
:0101200000DE
:0101210000DD
:0101220000DC
:0101230000DB
:0101240000DA
:0101250000D9
:0101260000D8
:0101270000D7
:0101280000D6
:0101290000D5
:01012A0000D4
:01012B0000D3
:01012C0000D2
:01012D0000D1
:01012E0000D0
:01012F0000CF
:0101300000CE
:0101310000CD
:0101320000CC
:0101330000CB
:0101340000CA
:0101350000C9
:0101360000C8
:0101370000C7
:0101380000C6
:0101390000C5
:01013A0000C4
:01013B0000C3
:01013C0000C2
:01013D0000C1
:01013E0000C0
:01013F0000BF
:0101400000BE
:0101410000BD
:0101420000BC
:0101430000BB
:0101440000BA
:0101450000B9
:0101460000B8
:0101470000B7
:0101480000B6
:0101490000B5
:01014A0000B4
:01014B0000B3
:01014C0000B2
:01014D0000B1
:01014E0000B0
:01014F0000AF
:0101500000AE
:0101510000AD
:0101520000AC
:0101530000AB
:0101540000AA
:0101550000A9
:0101560000A8
:0101570000A7
:0101580000A6
:0101590000A5
:01015A0000A4
:01015B0000A3
:01015C0000A2
:01015D0000A1
:01015E0000A0
:01015F00009F
:01016000009E
:01016100009D
:01016200009C
:01016300009B
:01016400009A
:010165000099
:010166000098
:010167000097
:010168000096
:010169000095
:01016A000094
:01016B000093
:01016C000092
:01016D000091
:01016E000090
:01016F00008F
:01017000008E
:01017100008D
:01017200008C
:01017300008B
:01017400008A
:010175000089
:010176000088
:010177000087
:010178000086
:010179000085
:01017A000084
:01017B000083
:01017C000082
:01017D000081
:01017E000080
:01017F00007F
:01018000007E
:01018100007D
:01018200007C
:01018300007B
:01018400007A
:010185000079
:010186000078
:010187000077
:010188000076
:010189000075
:01018A000074
:01018B000073
:01018C000072
:01018D000071
:01018E000070
:01018F00006F
:01019000006E
:01019100006D
:01019200006C
:01019300006B
:01019400006A
:010195000069
:010196000068
:010197000067
:010198000066
:010199000065
:01019A000064
:01019B000063
:01019C000062
:01019D000061
:01019E000060
:01019F00005F
:0101A000005E
:0101A100005D
:0101A200005C
:0101A300005B
:0101A400005A
:0101A5000059
:0101A6000058
:0101A7000057
:0101A8000056
:0101A9000154
:0101AA000153
:0101AB000152
:0101AC000151
:0101AD000150
:0101AE00014F
:0101AF00014E
:0101B000014D
:0101B100014C
:0101B200014B
:0101B300014A
:0101B4000149
:0101B5000148
:0101B6000147
:0101B7000146
:0101B8000145
:0101B9000144
:0101BA000143
:0101BB000142
:0101BC000141
:0101BD000140
:0101BE00013F
:0101BF00013E
:0101C000013D
:0101C100013C
:0101C200013B
:0101C300013A
:0101C4000139
:0101C5000138
:0101C6000137
:0101C7000136
:0101C8000135
:0101C9000134
:0101CA000133
:0101CB000132
:0101CC000131
:0101CD000130
:0101CE00012F
:0101CF00012E
:0101D000012D
:0101D100012C
:0101D200012B
:0101D300012A
:0101D4000129
:0101D5000128
:0101D6000127
:0101D7000126
:0101D8000125
:0101D9000124
:0101DA000123
:0101DB000122
:0101DC000121
:0101DD000120
:0101DE00011F
:0101DF00011E
:0101E000011D
:0101E100011C
:0101E200011B
:0101E300011A
:0101E4000119
:0101E5000118
:0101E6000117
:0101E7000116
:0101E8000115
:0101E9000114
:0101EA000113
:0101EB000112
:0101EC000111
:0101ED000110
:0101EE00010F
:0101EF00010E
:0101F000010D
:0101F100010C
:0101F200010B
:0101F300010A
:0101F4000109
:0101F5000108
:0101F6000107
:0101F7000106
:0101F8000105
:0101F9000104
:0101FA000103
:0101FB000102
:0101FC000101
:0101FD000100
:0101FE0001FF
:0101FF0001FE
:0102000001FC
:0102010001FB
:0102020001FA
:0102030001F9
:0102040001F8
:0102050001F7
:0102060001F6
:0102070001F5
:0102080001F4
:0102090001F3
:01020A0001F2
:01020B0001F1
:01020C0001F0
:01020D0001EF
:01020E0001EE
:01020F0001ED
:0102100001EC
:0102110001EB
:0102120001EA
:0102130001E9
:0102140001E8
:0102150001E7
:0102160001E6
:0102170001E5
:0102180001E4
:0102190001E3
:01021A0001E2
:01021B0001E1
:01021C0001E0
:01021D0001DF
:01021E0001DE
:01021F0001DD
:0102200001DC
:0102210001DB
:0102220001DA
:0102230001D9
:0102240001D8
:0102250001D7
:0102260001D6
:0102270001D5
:0102280001D4
:0102290001D3
:01022A0001D2
:01022B0001D1
:01022C0001D0
:01022D0001CF
:01022E0001CE
:01022F0001CD
:0102300001CC
:0102310001CB
:0102320001CA
:0102330001C9
:0102340001C8
:0102350001C7
:0102360001C6
:0102370001C5
:0102380001C4
:0102390001C3
:01023A0001C2
:01023B0001C1
:01023C0001C0
:01023D0001BF
:01023E0001BE
:01023F0000BE
:0102400001BC
:0102410000BC
:0102420000BB
:0102430000BA
:0102440000B9
:0102450000B8
:0102460000B7
:0102470000B6
:0102480000B5
:0102490000B4
:01024A0000B3
:01024B0000B2
:01024C0000B1
:01024D0000B0
:01024E0000AF
:01024F0000AE
:0102500000AD
:0102510000AC
:0102520000AB
:0102530000AA
:0102540000A9
:0102550000A8
:0102560000A7
:0102570000A6
:0102580000A5
:0102590000A4
:01025A0000A3
:01025B0000A2
:01025C0000A1
:01025D0000A0
:01025E00009F
:01025F00009E
:01026000009D
:01026100009C
:01026200009B
:01026300009A
:010264000099
:010265000098
:010266000097
:010267000096
:010268000095
:010269000094
:01026A000093
:01026B000092
:01026C000091
:01026D00018F
:01026E00018E
:01026F00018D
:01027000018C
:01027100018B
:01027200018A
:010273000189
:010274000188
:010275000187
:010276000186
:010277000185
:010278000184
:010279000183
:01027A000182
:01027B000181
:01027C000180
:01027D00017F
:01027E00017E
:01027F00017D
:01028000017C
:01028100017B
:01028200017A
:010283000179
:010284000178
:010285000177
:010286000176
:010287000175
:010288000174
:010289000173
:01028A000172
:01028B000171
:01028C000170
:01028D00016F
:01028E00016E
:01028F00016D
:01029000016C
:01029100016B
:01029200016A
:010293000169
:010294000168
:010295000167
:010296000166
:010297000165
:010298000164
:010299000163
:01029A000162
:01029B000161
:01029C000160
:01029D00015F
:01029E00015E
:01029F00015D
:0102A000015C
:0102A100015B
:0102A200015A
:0102A3000159
:0102A4000158
:0102A5000157
:0102A6000156
:0102A7000155
:0102A8000154
:0102A9000153
:0102AA000152
:0102AB000151
:0102AC000150
:0102AD00014F
:0102AE00014E
:0102AF00014D
:0102B000014C
:0102B100014B
:0102B200014A
:0102B3000149
:0102B4000148
:0102B5000147
:0102B6000146
:0102B7000145
:0102B8000144
:0102B9000143
:0102BA000142
:0102BB000141
:0102BC000140
:0102BD00013F
:0102BE00013E
:0102BF00013D
:0102C000013C
:0102C100013B
:0102C200013A
:0102C3000139
:0102C4000138
:0102C5000137
:0102C6000136
:0102C7000135
:0102C8000134
:0102C9000133
:0102CA000132
:0102CB000131
:0102CC000130
:0102CD00012F
:0102CE00012E
:0102CF00012D
:0102D000012C
:0102D100012B
:0102D200012A
:0102D3000129
:0102D4000128
:0102D5000127
:0102D6000126
:0102D7000125
:0102D8000124
:0102D9000123
:0102DA000122
:0102DB000121
:0102DC000120
:0102DD00011F
:0102DE00011E
:0102DF00011D
:0102E000011C
:0102E100011B
:0102E200011A
:0102E3000119
:0102E4000118
:0102E5000117
:0102E6000116
:0102E7000115
:0102E8000114
:0102E9000113
:0102EA000112
:0102EB000111
:0102EC000110
:0102ED00010F
:0102EE00010E
:0102EF00010D
:0102F000010C
:0102F100010B
:0102F200010A
:0102F3000109
:0102F4000108
:0102F5000107
:0102F6000106
:0102F7000105
:0102F8000104
:0102F9000103
:0102FA000102
:0102FB000101
:0102FC000100
:0102FD0001FF
:0102FE0001FE
:0102FF0001FD
:0103000001FB
:0103010001FA
:0103020001F9
:0103030001F8
:0103040001F7
:0103050001F6
:0103060001F5
:0103070001F4
:0103080001F3
:0103090001F2
:01030A0001F1
:01030B0001F0
:01030C0000F0
:01030D0000EF
:01030E0000EE
:01030F0000ED
:0103100000EC
:0103110000EB
:0103120000EA
:0103130000E9
:0103140000E8
:0103150000E7
:0103160000E6
:0103170000E5
:0103180000E4
:0103190000E3
:01031A0000E2
:01031B0000E1
:01031C0000E0
:01031D0000DF
:01031E0000DE
:01031F0000DD
:0103200000DC
:0103210000DB
:0103220000DA
:0103230000D9
:0103240000D8
:0103250000D7
:0103260000D6
:0103270000D5
:0103280000D4
:0103290000D3
:01032A0000D2
:01032B0000D1
:01032C0000D0
:01032D0000CF
:01032E0000CE
:01032F0000CD
:0103300000CC
:0103310000CB
:0103320001C9
:0103330001C8
:0103340001C7
:0103350001C6
:0103360001C5
:0103370001C4
:0103380001C3
:0103390001C2
:01033A0001C1
:01033B0001C0
:01033C0001BF
:01033D0001BE
:01033E0001BD
:01033F0001BC
:0103400001BB
:0103410001BA
:0103420001B9
:0103430001B8
:0103440001B7
:0103450001B6
:0103460001B5
:0103470001B4
:0103480001B3
:0103490001B2
:01034A0001B1
:01034B0001B0
:01034C0001AF
:01034D0001AE
:01034E0001AD
:01034F0001AC
:0103500001AB
:0103510001AA
:0103520001A9
:0103530001A8
:0103540001A7
:0103550001A6
:0103560001A5
:0103570001A4
:0103580001A3
:0103590001A2
:01035A0001A1
:01035B0001A0
:01035C00019F
:01035D00019E
:01035E00019D
:01035F00019C
:01036000019B
:01036100019A
:010362000199
:010363000198
:010364000197
:010365000196
:010366000195
:010367000194
:010368000193
:010369000192
:01036A000191
:01036B000190
:01036C00018F
:01036D00018E
:01036E00018D
:01036F00018C
:01037000018B
:01037100018A
:010372000189
:010373000188
:010374000187
:010375000186
:010376000185
:010377000184
:010378000183
:010379000182
:01037A000181
:01037B000180
:01037C00017F
:01037D00017E
:01037E00017D
:01037F00017C
:01038000017B
:01038100017A
:010382000179
:010383000178
:010384000177
:010385000176
:010386000175
:010387000174
:010388000173
:010389000172
:01038A000171
:01038B000170
:01038C00016F
:01038D00016E
:01038E00016D
:01038F00016C
:01039000016B
:01039100016A
:010392000169
:010393000168
:010394000167
:010395000166
:010396000165
:010397000164
:010398000163
:010399000162
:01039A000161
:01039B000160
:01039C00015F
:01039D00015E
:01039E00015D
:01039F00015C
:0103A000015B
:0103A100015A
:0103A2000159
:0103A3000158
:0103A4000157
:0103A5000156
:0103A6000155
:0103A7000154
:0103A8000153
:0103A9000152
:0103AA000151
:0103AB000150
:0103AC00014F
:0103AD00014E
:0103AE00014D
:0103AF00014C
:0103B000014B
:0103B100014A
:0103B2000149
:0103B3000148
:0103B4000147
:0103B5000146
:0103B6000145
:0103B7000144
:0103B8000143
:0103B9000142
:0103BA000141
:0103BB000140
:0103BC00013F
:0103BD00013E
:0103BE00013D
:0103BF00013C
:0103C000013B
:0103C100013A
:0103C2000139
:0103C3000138
:0103C4000137
:0103C5000136
:0103C6000135
:0103C7000134
:0103C8000133
:0103C9000132
:0103CA000131
:0103CB000130
:0103CC00012F
:0103CD00012E
:0103CE00012D
:0103CF00012C
:0103D000012B
:0103D100012A
:0103D2000129
:0103D3000128
:0103D4000127
:0103D5000126
:0103D6000125
:0103D7000025
:0103D8000024
:0103D9000023
:0103DA000022
:0103DB000021
:0103DC000020
:0103DD00001F
:0103DE00001E
:0103DF00001D
:0103E000001C
:0103E100001B
:0103E200001A
:0103E3000019
:0103E4000018
:0103E5000017
:0103E6000016
:0103E7000015
:0103E8000014
:0103E9000013
:0103EA000012
:0103EB000011
:0103EC000010
:0103ED00000F
:0103EE00000E
:0103EF00000D
:0103F000000C
:0103F100000B
:0103F200000A
:0103F3000009
:0103F4000008
:0103F5000007
:0103F6000006
:0103F7000005
:0103F8000103
:0103F9000102
:0103FA000101
:0103FB000100
:0103FC0001FF
:0103FD0001FE
:0103FE0001FD
:0103FF0001FC
:0104000001FA
:0104010001F9
:0104020001F8
:0104030001F7
:0104040001F6
:0104050001F5
:0104060001F4
:0104070001F3
:0104080001F2
:0104090001F1
:01040A0001F0
:01040B0001EF
:01040C0001EE
:01040D0001ED
:01040E0001EC
:01040F0001EB
:0104100001EA
:0104110001E9
:0104120001E8
:0104130001E7
:0104140001E6
:0104150001E5
:0104160001E4
:0104170001E3
:0104180001E2
:0104190001E1
:01041A0001E0
:01041B0001DF
:01041C0001DE
:01041D0001DD
:01041E0001DC
:01041F0001DB
:0104200001DA
:0104210001D9
:0104220001D8
:0104230001D7
:0104240001D6
:0104250001D5
:0104260001D4
:0104270001D3
:0104280001D2
:0104290001D1
:01042A0001D0
:01042B0001CF
:01042C0001CE
:01042D0001CD
:01042E0001CC
:01042F0001CB
:0104300001CA
:0104310001C9
:0104320001C8
:0104330001C7
:0104340001C6
:0104350001C5
:0104360001C4
:0104370001C3
:0104380001C2
:0104390001C1
:01043A0001C0
:01043B0001BF
:01043C0001BE
:01043D0001BD
:01043E0001BC
:01043F0001BB
:0104400001BA
:0104410001B9
:0104420001B8
:0104430001B7
:0104440001B6
:0104450001B5
:0104460001B4
:0104470001B3
:0104480001B2
:0104490001B1
:01044A0001B0
:01044B0001AF
:01044C0001AE
:01044D0001AD
:01044E0001AC
:01044F0001AB
:0104500001AA
:0104510001A9
:0104520001A8
:0104530001A7
:0104540001A6
:0104550001A5
:0104560001A4
:0104570001A3
:0104580001A2
:0104590001A1
:01045A0001A0
:01045B00019F
:01045C00019E
:01045D00019D
:01045E00019C
:01045F00019B
:01046000019A
:010461000199
:010462000198
:010463000197
:010464000196
:010465000195
:010466000194
:010467000193
:010468000192
:010469000191
:01046A000190
:01046B00018F
:01046C00018E
:01046D00018D
:01046E00018C
:01046F00018B
:01047000018A
:010471000189
:010472000188
:010473000187
:010474000186
:010475000185
:010476000184
:010477000183
:010478000182
:010479000181
:01047A000180
:01047B00017F
:01047C00017E
:01047D00017D
:01047E00017C
:01047F00017B
:01048000017A
:010481000179
:010482000178
:010483000177
:010484000176
:010485000175
:010486000174
:010487000173
:010488000172
:010489000171
:01048A000170
:01048B00016F
:01048C00016E
:01048D00016D
:01048E00016C
:01048F00016B
:01049000016A
:010491000169
:010492000168
:010493000167
:010494000166
:010495000165
:010496000164
:010497000163
:010498000162
:010499000161
:01049A000160
:01049B00015F
:01049C00015E
:01049D00015D
:01049E00015C
:01049F00015B
:0104A000015A
:0104A100005A
:0104A2000059
:0104A3000058
:0104A4000057
:0104A5000056
:0104A6000055
:0104A7000054
:0104A8000053
:0104A9000052
:0104AA000051
:0104AB000050
:0104AC00004F
:0104AD00004E
:0104AE00004D
:0104AF00004C
:0104B000004B
:0104B100004A
:0104B2000049
:0104B3000048
:0104B4000047
:0104B5000046
:0104B6000045
:0104B7000044
:0104B8000043
:0104B9000042
:0104BA000041
:0104BB000040
:0104BC00003F
:0104BD00003E
:0104BE00003D
:0104BF00013B
:0104C000013A
:0104C1000139
:0104C2000138
:0104C3000137
:0104C4000136
:0104C5000135
:0104C6000134
:0104C7000133
:0104C8000132
:0104C9000131
:0104CA000130
:0104CB00012F
:0104CC00012E
:0104CD00012D
:0104CE00012C
:0104CF00012B
:0104D000012A
:0104D1000129
:0104D2000128
:0104D3000127
:0104D4000126
:0104D5000125
:0104D6000124
:0104D7000123
:0104D8000122
:0104D9000121
:0104DA000120
:0104DB00011F
:0104DC00011E
:0104DD00011D
:0104DE00011C
:0104DF00011B
:0104E000011A
:0104E1000119
:0104E2000118
:0104E3000117
:0104E4000116
:0104E5000115
:0104E6000114
:0104E7000113
:0104E8000112
:0104E9000111
:0104EA000110
:0104EB00010F
:0104EC00010E
:0104ED00010D
:0104EE00010C
:0104EF00010B
:0104F000010A
:0104F1000109
:0104F2000108
:0104F3000107
:0104F4000106
:0104F5000105
:0104F6000104
:0104F7000103
:0104F8000102
:0104F9000101
:0104FA000100
:0104FB0001FF
:0104FC0001FE
:0104FD0001FD
:0104FE0001FC
:0104FF0001FB
:0105000001F9
:0105010001F8
:0105020001F7
:0105030001F6
:0105040001F5
:0105050001F4
:0105060001F3
:0105070001F2
:0105080001F1
:0105090001F0
:01050A0001EF
:01050B0001EE
:01050C0001ED
:01050D0001EC
:01050E0001EB
:01050F0001EA
:0105100001E9
:0105110001E8
:0105120001E7
:0105130001E6
:0105140001E5
:0105150001E4
:0105160001E3
:0105170001E2
:0105180001E1
:0105190001E0
:01051A0001DF
:01051B0001DE
:01051C0001DD
:01051D0001DC
:01051E0001DB
:01051F0001DA
:0105200001D9
:0105210001D8
:0105220001D7
:0105230001D6
:0105240001D5
:0105250001D4
:0105260001D3
:0105270001D2
:0105280001D1
:0105290001D0
:01052A0001CF
:01052B0001CE
:01052C0001CD
:01052D0001CC
:01052E0001CB
:01052F0001CA
:0105300001C9
:0105310001C8
:0105320001C7
:0105330001C6
:0105340001C5
:0105350001C4
:0105360001C3
:0105370001C2
:0105380001C1
:0105390001C0
:01053A0001BF
:01053B0001BE
:01053C0001BD
:01053D0001BC
:01053E0001BB
:01053F0001BA
:0105400001B9
:0105410001B8
:0105420001B7
:0105430001B6
:0105440001B5
:0105450001B4
:0105460001B3
:0105470001B2
:0105480001B1
:0105490001B0
:01054A0001AF
:01054B0001AE
:01054C0001AD
:01054D0001AC
:01054E0001AB
:01054F0001AA
:0105500001A9
:0105510001A8
:0105520001A7
:0105530001A6
:0105540001A5
:0105550001A4
:0105560001A3
:0105570001A2
:0105580001A1
:0105590001A0
:01055A00019F
:01055B00019E
:01055C00019D
:01055D00019C
:01055E00019B
:01055F00019A
:010560000199
:010561000198
:010562000197
:010563000196
:010564000195
:010565000194
:010566000193
:010567000192
:010568000191
:010569000190
:01056A000090
:01056B00008F
:01056C00008E
:01056D00008D
:01056E00008C
:01056F00008B
:01057000008A
:010571000089
:010572000088
:010573000087
:010574000086
:010575000085
:010576000084
:010577000083
:010578000082
:010579000081
:01057A000080
:01057B00007F
:01057C00007E
:01057D00007D
:01057E00007C
:01057F00007B
:01058000007A
:010581000079
:010582000078
:010583000077
:010584000076
:010585000075
:010586000173
:010587000172
:010588000171
:010589000170
:01058A00016F
:01058B00016E
:01058C00016D
:01058D00016C
:01058E00016B
:01058F00016A
:010590000169
:010591000168
:010592000167
:010593000166
:010594000165
:010595000164
:010596000163
:010597000162
:010598000161
:010599000160
:01059A00015F
:01059B00015E
:01059C00015D
:01059D00015C
:01059E00015B
:01059F00015A
:0105A0000159
:0105A1000158
:0105A2000157
:0105A3000156
:0105A4000155
:0105A5000154
:0105A6000153
:0105A7000152
:0105A8000151
:0105A9000150
:0105AA00014F
:0105AB00014E
:0105AC00014D
:0105AD00014C
:0105AE00014B
:0105AF00014A
:0105B0000149
:0105B1000148
:0105B2000147
:0105B3000146
:0105B4000145
:0105B5000144
:0105B6000143
:0105B7000142
:0105B8000141
:0105B9000140
:0105BA00013F
:0105BB00013E
:0105BC00013D
:0105BD00013C
:0105BE00013B
:0105BF00013A
:0105C0000139
:0105C1000138
:0105C2000137
:0105C3000136
:0105C4000135
:0105C5000134
:0105C6000133
:0105C7000132
:0105C8000131
:0105C9000130
:0105CA00012F
:0105CB00012E
:0105CC00012D
:0105CD00012C
:0105CE00012B
:0105CF00012A
:0105D0000129
:0105D1000128
:0105D2000127
:0105D3000126
:0105D4000125
:0105D5000124
:0105D6000123
:0105D7000122
:0105D8000121
:0105D9000120
:0105DA00011F
:0105DB00011E
:0105DC00011D
:0105DD00011C
:0105DE00011B
:0105DF00011A
:0105E0000119
:0105E1000118
:0105E2000117
:0105E3000116
:0105E4000115
:0105E5000114
:0105E6000113
:0105E7000112
:0105E8000111
:0105E9000110
:0105EA00010F
:0105EB00010E
:0105EC00010D
:0105ED00010C
:0105EE00010B
:0105EF00010A
:0105F0000109
:0105F1000108
:0105F2000107
:0105F3000106
:0105F4000105
:0105F5000104
:0105F6000103
:0105F7000102
:0105F8000101
:0105F9000100
:0105FA0001FF
:0105FB0001FE
:0105FC0001FD
:0105FD0001FC
:0105FE0001FB
:0105FF0001FA
:0106000001F8
:0106010001F7
:0106020001F6
:0106030001F5
:0106040001F4
:0106050001F3
:0106060001F2
:0106070001F1
:0106080001F0
:0106090001EF
:01060A0001EE
:01060B0001ED
:01060C0001EC
:01060D0001EB
:01060E0001EA
:01060F0001E9
:0106100001E8
:0106110001E7
:0106120001E6
:0106130001E5
:0106140001E4
:0106150001E3
:0106160001E2
:0106170001E1
:0106180001E0
:0106190001DF
:01061A0001DE
:01061B0001DD
:01061C0001DC
:01061D0001DB
:01061E0001DA
:01061F0001D9
:0106200001D8
:0106210001D7
:0106220001D6
:0106230001D5
:0106240001D4
:0106250001D3
:0106260001D2
:0106270001D1
:0106280001D0
:0106290001CF
:01062A0001CE
:01062B0001CD
:01062C0001CC
:01062D0001CB
:01062E0001CA
:01062F0001C9
:0106300001C8
:0106310001C7
:0106320001C6
:0106330001C5
:0106340000C5
:0106350000C4
:0106360000C3
:0106370000C2
:0106380000C1
:0106390000C0
:01063A0000BF
:01063B0000BE
:01063C0000BD
:01063D0000BC
:01063E0000BB
:01063F0000BA
:0106400000B9
:0106410000B8
:0106420000B7
:0106430000B6
:0106440000B5
:0106450000B4
:0106460000B3
:0106470000B2
:0106480000B1
:0106490000B0
:01064A0000AF
:01064B0000AE
:01064C0001AC
:01064D0001AB
:01064E0001AA
:01064F0001A9
:0106500001A8
:0106510001A7
:0106520001A6
:0106530001A5
:0106540001A4
:0106550001A3
:0106560001A2
:0106570001A1
:0106580000A1
:0106590000A0
:01065A00009F
:01065B00009E
:01065C00009D
:01065D00009C
:01065E00009B
:01065F00009A
:010660000099
:010661000098
:010662000097
:010663000096
:010664000095
:010665000094
:010666000093
:010667000092
:010668000091
:010669000090
:01066A00008F
:01066B00008E
:01066C00008D
:01066D00008C
:01066E00008B
:01066F00008A
:010670000089
:010671000088
:010672000087
:010673000086
:010674000085
:010675000084
:010676000083
:010677000082
:010678000081
:010679000080
:01067A00007F
:01067B00007E
:01067C00007D
:01067D00007C
:01067E00007B
:01067F00007A
:010680000079
:010681000078
:010682000077
:010683000076
:010684000075
:010685000074
:010686000073
:010687000072
:010688000071
:010689000070
:01068A00006F
:01068B00006E
:01068C00006D
:01068D00006C
:01068E00006B
:01068F00006A
:010690000069
:010691000068
:010692000067
:010693000066
:010694000065
:010695000064
:010696000063
:010697000062
:010698000061
:010699000060
:01069A00005F
:01069B00005E
:01069C00005D
:01069D00005C
:01069E00005B
:01069F00005A
:0106A0000059
:0106A1000058
:0106A2000057
:0106A3000056
:0106A4000055
:0106A5000054
:0106A6000053
:0106A7000052
:0106A8000051
:0106A9000050
:0106AA00004F
:0106AB00004E
:0106AC00004D
:0106AD00004C
:0106AE00004B
:0106AF00004A
:0106B0000049
:0106B1000048
:0106B2000047
:0106B3000046
:0106B4000045
:0106B5000044
:0106B6000043
:0106B7000042
:0106B8000041
:0106B9000040
:0106BA00003F
:0106BB00003E
:0106BC00003D
:0106BD00003C
:0106BE00003B
:0106BF00003A
:0106C0000039
:0106C1000038
:0106C2000037
:0106C3000036
:0106C4000035
:0106C5000034
:0106C6000033
:0106C7000032
:0106C8000031
:0106C9000030
:0106CA00002F
:0106CB00002E
:0106CC00002D
:0106CD00002C
:0106CE00002B
:0106CF00002A
:0106D0000029
:0106D1000028
:0106D2000027
:0106D3000026
:0106D4000025
:0106D5000024
:0106D6000023
:0106D7000022
:0106D8000021
:0106D9000020
:0106DA00001F
:0106DB00001E
:0106DC00001D
:0106DD00001C
:0106DE00001B
:0106DF00001A
:0106E0000019
:0106E1000018
:0106E2000017
:0106E3000016
:0106E4000015
:0106E5000014
:0106E6000013
:0106E7000012
:0106E8000011
:0106E9000010
:0106EA00000F
:0106EB00000E
:0106EC00000D
:0106ED00000C
:0106EE00000B
:0106EF00000A
:0106F0000009
:0106F1000107
:0106F2000106
:0106F3000105
:0106F4000104
:0106F5000103
:0106F6000102
:0106F7000101
:0106F8000100
:0106F90001FF
:0106FA0001FE
:0106FB0001FD
:0106FC0001FC
:0106FD0000FC
:0106FE0000FB
:0106FF0000FA
:0107000000F8
:0107010000F7
:0107020000F6
:0107030000F5
:0107040000F4
:0107050000F3
:0107060000F2
:0107070000F1
:0107080000F0
:0107090000EF
:01070A0000EE
:01070B0000ED
:01070C0000EC
:01070D0000EB
:01070E0000EA
:01070F0000E9
:0107100000E8
:0107110000E7
:0107120000E6
:0107130001E4
:0107140001E3
:0107150001E2
:0107160001E1
:0107170001E0
:0107180001DF
:0107190001DE
:01071A0001DD
:01071B0001DC
:01071C0001DB
:01071D0000DB
:01071E0000DA
:01071F0000D9
:0107200000D8
:0107210000D7
:0107220000D6
:0107230000D5
:0107240000D4
:0107250000D3
:0107260000D2
:0107270000D1
:0107280000D0
:0107290000CF
:01072A0000CE
:01072B0000CD
:01072C0000CC
:01072D0000CB
:01072E0000CA
:01072F0000C9
:0107300000C8
:0107310000C7
:0107320000C6
:0107330000C5
:0107340000C4
:0107350000C3
:0107360000C2
:0107370000C1
:0107380000C0
:0107390000BF
:01073A0000BE
:01073B0000BD
:01073C0000BC
:01073D0000BB
:01073E0000BA
:01073F0000B9
:0107400000B8
:0107410000B7
:0107420000B6
:0107430000B5
:0107440000B4
:0107450000B3
:0107460000B2
:0107470000B1
:0107480000B0
:0107490000AF
:01074A0000AE
:01074B0000AD
:01074C0000AC
:01074D0000AB
:01074E0000AA
:01074F0000A9
:0107500000A8
:0107510000A7
:0107520000A6
:0107530000A5
:0107540000A4
:0107550000A3
:0107560000A2
:0107570000A1
:0107580000A0
:01075900009F
:01075A00009E
:01075B00009D
:01075C00009C
:01075D00009B
:01075E00009A
:01075F000099
:010760000098
:010761000097
:010762000096
:010763000095
:010764000094
:010765000093
:010766000092
:010767000091
:010768000090
:01076900008F
:01076A00008E
:01076B00008D
:01076C00008C
:01076D00008B
:01076E00008A
:01076F000089
:010770000088
:010771000087
:010772000086
:010773000085
:010774000084
:010775000083
:010776000082
:010777000081
:010778000080
:01077900007F
:01077A00007E
:01077B00007D
:01077C00007C
:01077D00007B
:01077E00007A
:01077F000079
:010780000078
:010781000077
:010782000076
:010783000075
:010784000074
:010785000073
:010786000072
:010787000071
:010788000070
:01078900006F
:01078A00006E
:01078B00006D
:01078C00006C
:01078D00006B
:01078E00006A
:01078F000069
:010790000068
:010791000067
:010792000066
:010793000065
:010794000064
:010795000063
:010796000062
:010797000061
:010798000060
:01079900005F
:01079A00005E
:01079B00005D
:01079C00005C
:01079D00005B
:01079E00005A
:01079F000059
:0107A0000058
:0107A1000057
:0107A2000056
:0107A3000055
:0107A4000054
:0107A5000053
:0107A6000052
:0107A7000051
:0107A8000050
:0107A900004F
:0107AA00004E
:0107AB00004D
:0107AC00004C
:0107AD00004B
:0107AE00004A
:0107AF000049
:0107B0000048
:0107B1000047
:0107B2000046
:0107B3000045
:0107B4000044
:0107B5000043
:0107B6000042
:0107B7000041
:0107B8000040
:0107B900003F
:0107BA00003E
:0107BB00003D
:0107BC00013B
:0107BD00013A
:0107BE000139
:0107BF000138
:0107C0000137
:0107C1000136
:0107C2000135
:0107C3000134
:0107C4000133
:0107C5000132
:0107C6000032
:0107C7000031
:0107C8000030
:0107C900002F
:0107CA00002E
:0107CB00002D
:0107CC00002C
:0107CD00002B
:0107CE00002A
:0107CF000029
:0107D0000028
:0107D1000027
:0107D2000026
:0107D3000025
:0107D4000024
:0107D5000023
:0107D6000022
:0107D7000021
:0107D8000020
:0107D900001F
:0107DA00001E
:0107DB00011C
:0107DC00011B
:0107DD00011A
:0107DE000119
:0107DF000118
:0107E0000117
:0107E1000116
:0107E2000115
:0107E3000015
:0107E4000014
:0107E5000013
:0107E6000012
:0107E7000011
:0107E8000010
:0107E900000F
:0107EA00000E
:0107EB00000D
:0107EC00000C
:0107ED00000B
:0107EE00000A
:0107EF000009
:0107F0000008
:0107F1000007
:0107F2000006
:0107F3000005
:0107F4000004
:0107F5000003
:0107F6000002
:0107F7000001
:0107F8000000
:0107F90000FF
:0107FA0000FE
:0107FB0000FD
:0107FC0000FC
:0107FD0000FB
:0107FE0000FA
:0107FF0000F9
:0108000000F7
:0108010000F6
:0108020000F5
:0108030000F4
:0108040000F3
:0108050000F2
:0108060000F1
:0108070000F0
:0108080000EF
:0108090000EE
:01080A0000ED
:01080B0000EC
:01080C0000EB
:01080D0000EA
:01080E0000E9
:01080F0000E8
:0108100000E7
:0108110000E6
:0108120000E5
:0108130000E4
:0108140000E3
:0108150000E2
:0108160000E1
:0108170000E0
:0108180000DF
:0108190000DE
:01081A0000DD
:01081B0000DC
:01081C0000DB
:01081D0000DA
:01081E0000D9
:01081F0000D8
:0108200000D7
:0108210000D6
:0108220000D5
:0108230000D4
:0108240000D3
:0108250000D2
:0108260000D1
:0108270000D0
:0108280000CF
:0108290000CE
:01082A0000CD
:01082B0000CC
:01082C0000CB
:01082D0000CA
:01082E0000C9
:01082F0000C8
:0108300000C7
:0108310000C6
:0108320000C5
:0108330000C4
:0108340000C3
:0108350000C2
:0108360000C1
:0108370000C0
:0108380000BF
:0108390000BE
:01083A0000BD
:01083B0000BC
:01083C0000BB
:01083D0000BA
:01083E0000B9
:01083F0000B8
:0108400000B7
:0108410000B6
:0108420000B5
:0108430000B4
:0108440000B3
:0108450000B2
:0108460000B1
:0108470000B0
:0108480000AF
:0108490000AE
:01084A0000AD
:01084B0000AC
:01084C0000AB
:01084D0000AA
:01084E0000A9
:01084F0000A8
:0108500000A7
:0108510000A6
:0108520000A5
:0108530000A4
:0108540000A3
:0108550000A2
:0108560000A1
:0108570000A0
:01085800009F
:01085900009E
:01085A00009D
:01085B00009C
:01085C00009B
:01085D00009A
:01085E000099
:01085F000098
:010860000097
:010861000096
:010862000095
:010863000094
:010864000093
:010865000092
:010866000091
:010867000090
:01086800008F
:01086900008E
:01086A00008D
:01086B00008C
:01086C00008B
:01086D00008A
:01086E000089
:01086F000088
:010870000087
:010871000086
:010872000085
:010873000084
:010874000083
:010875000082
:010876000081
:010877000080
:01087800007F
:01087900007E
:01087A00007D
:01087B00007C
:01087C00007B
:01087D00007A
:01087E000079
:01087F000078
:010880000077
:010881000076
:010882000075
:010883000074
:010884000073
:010885000072
:010886000170
:01088700016F
:01088800016E
:01088900016D
:01088A00016C
:01088B00016B
:01088C00016A
:01088D000169
:01088E000168
:01088F000068
:010890000067
:010891000066
:010892000065
:010893000064
:010894000063
:010895000062
:010896000061
:010897000060
:01089800005F
:01089900005E
:01089A00005D
:01089B00005C
:01089C00005B
:01089D00005A
:01089E000059
:01089F000058
:0108A0000057
:0108A1000056
:0108A2000154
:0108A3000153
:0108A4000152
:0108A5000151
:0108A6000150
:0108A700014F
:0108A800014E
:0108A900014D
:0108AA00004D
:0108AB00004C
:0108AC00004B
:0108AD00004A
:0108AE000049
:0108AF000048
:0108B0000047
:0108B1000046
:0108B2000045
:0108B3000044
:0108B4000043
:0108B5000042
:0108B6000041
:0108B7000040
:0108B800003F
:0108B900003E
:0108BA00003D
:0108BB00003C
:0108BC00003B
:0108BD00003A
:0108BE000039
:0108BF000038
:0108C0000037
:0108C1000036
:0108C2000035
:0108C3000034
:0108C4000033
:0108C5000032
:0108C6000031
:0108C7000030
:0108C800002F
:0108C900002E
:0108CA00002D
:0108CB00002C
:0108CC00002B
:0108CD00002A
:0108CE000029
:0108CF000028
:0108D0000027
:0108D1000026
:0108D2000025
:0108D3000024
:0108D4000023
:0108D5000022
:0108D6000021
:0108D7000020
:0108D800001F
:0108D900001E
:0108DA00001D
:0108DB00001C
:0108DC00001B
:0108DD00001A
:0108DE000019
:0108DF000018
:0108E0000017
:0108E1000016
:0108E2000015
:0108E3000014
:0108E4000013
:0108E5000012
:0108E6000011
:0108E7000010
:0108E800000F
:0108E900000E
:0108EA00000D
:0108EB00000C
:0108EC00000B
:0108ED00000A
:0108EE000009
:0108EF000008
:0108F0000007
:0108F1000006
:0108F2000005
:0108F3000004
:0108F4000003
:0108F5000002
:0108F6000001
:0108F7000000
:0108F80000FF
:0108F90000FE
:0108FA0000FD
:0108FB0000FC
:0108FC0000FB
:0108FD0000FA
:0108FE0000F9
:0108FF0000F8
:0109000000F6
:0109010000F5
:0109020000F4
:0109030000F3
:0109040000F2
:0109050000F1
:0109060000F0
:0109070000EF
:0109080000EE
:0109090000ED
:01090A0000EC
:01090B0000EB
:01090C0000EA
:01090D0000E9
:01090E0000E8
:01090F0000E7
:0109100000E6
:0109110000E5
:0109120000E4
:0109130000E3
:0109140000E2
:0109150000E1
:0109160000E0
:0109170000DF
:0109180000DE
:0109190000DD
:01091A0000DC
:01091B0000DB
:01091C0000DA
:01091D0000D9
:01091E0000D8
:01091F0000D7
:0109200000D6
:0109210000D5
:0109220000D4
:0109230000D3
:0109240000D2
:0109250000D1
:0109260000D0
:0109270000CF
:0109280000CE
:0109290000CD
:01092A0000CC
:01092B0000CB
:01092C0000CA
:01092D0000C9
:01092E0000C8
:01092F0000C7
:0109300000C6
:0109310000C5
:0109320000C4
:0109330000C3
:0109340000C2
:0109350000C1
:0109360000C0
:0109370000BF
:0109380000BE
:0109390000BD
:01093A0000BC
:01093B0000BB
:01093C0000BA
:01093D0000B9
:01093E0000B8
:01093F0000B7
:0109400000B6
:0109410000B5
:0109420000B4
:0109430000B3
:0109440000B2
:0109450000B1
:0109460000B0
:0109470000AF
:0109480000AE
:0109490000AD
:01094A0000AC
:01094B0000AB
:01094C0000AA
:01094D0000A9
:01094E0000A8
:01094F0000A7
:0109500001A5
:0109510001A4
:0109520001A3
:0109530001A2
:0109540001A1
:0109550001A0
:01095600019F
:01095700019E
:01095800009E
:01095900009D
:01095A00009C
:01095B00009B
:01095C00009A
:01095D000099
:01095E000098
:01095F000097
:010960000096
:010961000095
:010962000094
:010963000093
:010964000092
:010965000091
:010966000090
:01096700008F
:01096800008E
:01096900018C
:01096A00018B
:01096B00018A
:01096C000189
:01096D000188
:01096E000187
:01096F000186
:010970000086
:010971000085
:010972000084
:010973000083
:010974000082
:010975000081
:010976000080
:01097700007F
:01097800007E
:01097900007D
:01097A00007C
:01097B00007B
:01097C00007A
:01097D000079
:01097E000078
:01097F000077
:010980000076
:010981000075
:010982000074
:010983000073
:010984000072
:010985000071
:010986000070
:01098700006F
:01098800006E
:01098900006D
:01098A00006C
:01098B00006B
:01098C00006A
:01098D000069
:01098E000068
:01098F000067
:010990000066
:010991000065
:010992000064
:010993000063
:010994000062
:010995000061
:010996000060
:01099700005F
:01099800005E
:01099900005D
:01099A00005C
:01099B00005B
:01099C00005A
:01099D000059
:01099E000058
:01099F000057
:0109A0000056
:0109A1000055
:0109A2000054
:0109A3000053
:0109A4000052
:0109A5000051
:0109A6000050
:0109A700004F
:0109A800004E
:0109A900004D
:0109AA00004C
:0109AB00004B
:0109AC00004A
:0109AD000049
:0109AE000048
:0109AF000047
:0109B0000046
:0109B1000045
:0109B2000044
:0109B3000043
:0109B4000042
:0109B5000041
:0109B6000040
:0109B700003F
:0109B800003E
:0109B900003D
:0109BA00003C
:0109BB00003B
:0109BC00003A
:0109BD000039
:0109BE000038
:0109BF000037
:0109C0000036
:0109C1000035
:0109C2000034
:0109C3000033
:0109C4000032
:0109C5000031
:0109C6000030
:0109C700002F
:0109C800002E
:0109C900002D
:0109CA00002C
:0109CB00002B
:0109CC00002A
:0109CD000029
:0109CE000028
:0109CF000027
:0109D0000026
:0109D1000025
:0109D2000024
:0109D3000023
:0109D4000022
:0109D5000021
:0109D6000020
:0109D700001F
:0109D800001E
:0109D900001D
:0109DA00001C
:0109DB00001B
:0109DC00001A
:0109DD000019
:0109DE000018
:0109DF000017
:0109E0000016
:0109E1000015
:0109E2000014
:0109E3000013
:0109E4000012
:0109E5000011
:0109E6000010
:0109E700000F
:0109E800000E
:0109E900000D
:0109EA00000C
:0109EB00000B
:0109EC00000A
:0109ED000009
:0109EE000008
:0109EF000007
:0109F0000006
:0109F1000005
:0109F2000004
:0109F3000003
:0109F4000002
:0109F5000001
:0109F6000000
:0109F70000FF
:0109F80000FE
:0109F90000FD
:0109FA0000FC
:0109FB0000FB
:0109FC0000FA
:0109FD0000F9
:0109FE0000F8
:0109FF0000F7
:010A000000F5
:010A010000F4
:010A020000F3
:010A030000F2
:010A040000F1
:010A050000F0
:010A060000EF
:010A070000EE
:010A080000ED
:010A090000EC
:010A0A0000EB
:010A0B0000EA
:010A0C0000E9
:010A0D0000E8
:010A0E0000E7
:010A0F0000E6
:010A100000E5
:010A110000E4
:010A120000E3
:010A130000E2
:010A140000E1
:010A150000E0
:010A160000DF
:010A170000DE
:010A180000DD
:010A190001DB
:010A1A0001DA
:010A1B0001D9
:010A1C0001D8
:010A1D0001D7
:010A1E0001D6
:010A1F0001D5
:010A200000D5
:010A210000D4
:010A220000D3
:010A230000D2
:010A240000D1
:010A250000D0
:010A260000CF
:010A270000CE
:010A280000CD
:010A290000CC
:010A2A0000CB
:010A2B0000CA
:010A2C0000C9
:010A2D0000C8
:010A2E0000C7
:010A2F0000C6
:010A300001C4
:010A310001C3
:010A320001C2
:010A330001C1
:010A340001C0
:010A350001BF
:010A360001BE
:010A370001BD
:010A380000BD
:010A390000BC
:010A3A0000BB
:010A3B0000BA
:010A3C0000B9
:010A3D0000B8
:010A3E0000B7
:010A3F0000B6
:010A400000B5
:010A410000B4
:010A420000B3
:010A430000B2
:010A440000B1
:010A450000B0
:010A460000AF
:010A470000AE
:010A480000AD
:010A490000AC
:010A4A0000AB
:010A4B0000AA
:010A4C0000A9
:010A4D0000A8
:010A4E0000A7
:010A4F0000A6
:010A500000A5
:010A510000A4
:010A520000A3
:010A530000A2
:010A540000A1
:010A550000A0
:010A5600009F
:010A5700009E
:010A5800009D
:010A5900009C
:010A5A00009B
:010A5B00009A
:010A5C000099
:010A5D000098
:010A5E000097
:010A5F000096
:010A60000095
:010A61000094
:010A62000093
:010A63000092
:010A64000091
:010A65000090
:010A6600008F
:010A6700008E
:010A6800008D
:010A6900008C
:010A6A00008B
:010A6B00008A
:010A6C000089
:010A6D000088
:010A6E000087
:010A6F000086
:010A70000085
:010A71000084
:010A72000083
:010A73000082
:010A74000081
:010A75000080
:010A7600007F
:010A7700007E
:010A7800007D
:010A7900007C
:010A7A00007B
:010A7B00007A
:010A7C000079
:010A7D000078
:010A7E000077
:010A7F000076
:010A80000075
:010A81000074
:010A82000073
:010A83000072
:010A84000071
:010A85000070
:010A8600006F
:010A8700006E
:010A8800006D
:010A8900006C
:010A8A00006B
:010A8B00006A
:010A8C000069
:010A8D000068
:010A8E000067
:010A8F000066
:010A90000065
:010A91000064
:010A92000063
:010A93000062
:010A94000061
:010A95000060
:010A9600005F
:010A9700005E
:010A9800005D
:010A9900005C
:010A9A00005B
:010A9B00005A
:010A9C000059
:010A9D000058
:010A9E000057
:010A9F000056
:010AA0000055
:010AA1000054
:010AA2000053
:010AA3000052
:010AA4000051
:010AA5000050
:010AA600004F
:010AA700004E
:010AA800004D
:010AA900004C
:010AAA00004B
:010AAB00004A
:010AAC000049
:010AAD000048
:010AAE000047
:010AAF000046
:010AB0000045
:010AB1000044
:010AB2000043
:010AB3000042
:010AB4000041
:010AB5000040
:010AB600003F
:010AB700003E
:010AB800003D
:010AB900003C
:010ABA00003B
:010ABB00003A
:010ABC000039
:010ABD000038
:010ABE000037
:010ABF000036
:010AC0000035
:010AC1000034
:010AC2000033
:010AC3000032
:010AC4000031
:010AC5000030
:010AC600002F
:010AC700002E
:010AC800002D
:010AC900002C
:010ACA00002B
:010ACB00002A
:010ACC000029
:010ACD000028
:010ACE000027
:010ACF000026
:010AD0000025
:010AD1000024
:010AD2000023
:010AD3000022
:010AD4000021
:010AD5000020
:010AD600001F
:010AD700001E
:010AD800001D
:010AD900001C
:010ADA00001B
:010ADB00001A
:010ADC000019
:010ADD000018
:010ADE000017
:010ADF000016
:010AE0000015
:010AE1000014
:010AE2000112
:010AE3000111
:010AE4000110
:010AE500010F
:010AE600010E
:010AE700010D
:010AE800010C
:010AE900000C
:010AEA00000B
:010AEB00000A
:010AEC000009
:010AED000008
:010AEE000007
:010AEF000006
:010AF0000005
:010AF1000004
:010AF2000003
:010AF3000002
:010AF4000001
:010AF5000000
:010AF60000FF
:010AF70000FE
:010AF80001FC
:010AF90001FB
:010AFA0001FA
:010AFB0001F9
:010AFC0001F8
:010AFD0001F7
:010AFE0000F7
:010AFF0000F6
:010B000000F4
:010B010000F3
:010B020000F2
:010B030000F1
:010B040000F0
:010B050000EF
:010B060000EE
:010B070000ED
:010B080000EC
:010B090000EB
:010B0A0000EA
:010B0B0000E9
:010B0C0000E8
:010B0D0000E7
:010B0E0000E6
:010B0F0000E5
:010B100000E4
:010B110000E3
:010B120000E2
:010B130000E1
:010B140000E0
:010B150000DF
:010B160000DE
:010B170000DD
:010B180000DC
:010B190000DB
:010B1A0000DA
:010B1B0000D9
:010B1C0000D8
:010B1D0000D7
:010B1E0000D6
:010B1F0000D5
:010B200000D4
:010B210000D3
:010B220000D2
:010B230000D1
:010B240000D0
:010B250000CF
:010B260000CE
:010B270000CD
:010B280000CC
:010B290000CB
:010B2A0000CA
:010B2B0000C9
:010B2C0000C8
:010B2D0000C7
:010B2E0000C6
:010B2F0000C5
:010B300000C4
:010B310000C3
:010B320000C2
:010B330000C1
:010B340001BF
:010B350000BF
:010B360000BE
:010B370000BD
:010B380000BC
:010B390000BB
:010B3A0000BA
:010B3B0000B9
:010B3C0000B8
:010B3D0000B7
:010B3E0000B6
:010B3F0000B5
:010B400000B4
:010B410000B3
:010B420000B2
:010B430000B1
:010B440000B0
:010B450000AF
:010B460000AE
:010B470000AD
:010B480000AC
:010B490000AB
:010B4A0000AA
:010B4B0000A9
:010B4C0000A8
:010B4D0000A7
:010B4E0000A6
:010B4F0000A5
:010B500000A4
:010B510000A3
:010B520000A2
:010B530000A1
:010B540000A0
:010B5500009F
:010B5600019D
:010B5700009D
:010B5800009C
:010B5900009B
:010B5A000199
:010B5B000099
:010B5C000098
:010B5D000097
:010B5E000096
:010B5F000095
:010B60000094
:010B61000093
:010B62000092
:010B63000091
:010B64000090
:010B6500008F
:010B6600008E
:010B6700008D
:010B6800008C
:010B6900008B
:010B6A00008A
:010B6B000089
:010B6C000088
:010B6D000087
:010B6E000086
:010B6F000085
:010B70000084
:010B71000083
:010B72000082
:010B73000081
:010B74000080
:010B7500007F
:010B7600007E
:010B7700007D
:010B7800007C
:010B7900007B
:010B7A00007A
:010B7B000079
:010B7C000078
:010B7D000077
:010B7E000076
:010B7F000075
:010B80000074
:010B81000073
:010B82000072
:010B83000071
:010B84000070
:010B8500006F
:010B8600006E
:010B8700006D
:010B8800006C
:010B8900006B
:010B8A00006A
:010B8B000069
:010B8C000068
:010B8D000067
:010B8E000066
:010B8F000065
:010B90000064
:010B91000063
:010B92000062
:010B93000061
:010B94000060
:010B9500005F
:010B9600005E
:010B9700005D
:010B9800005C
:010B9900005B
:010B9A00005A
:010B9B000059
:010B9C000058
:010B9D000057
:010B9E000056
:010B9F000055
:010BA0000054
:010BA1000053
:010BA2000052
:010BA3000051
:010BA4000050
:010BA500004F
:010BA600004E
:010BA700004D
:010BA800004C
:010BA900004B
:010BAA00004A
:010BAB000148
:010BAC000147
:010BAD000146
:010BAE000145
:010BAF000144
:010BB0000143
:010BB1000043
:010BB2000042
:010BB3000041
:010BB4000040
:010BB500003F
:010BB600003E
:010BB700003D
:010BB800003C
:010BB900003B
:010BBA00003A
:010BBB000039
:010BBC000038
:010BBD000037
:010BBE000036
:010BBF000134
:010BC0000133
:010BC1000132
:010BC2000131
:010BC3000130
:010BC400012F
:010BC500012E
:010BC600002E
:010BC700002D
:010BC800002C
:010BC900002B
:010BCA00002A
:010BCB000029
:010BCC000028
:010BCD000027
:010BCE000026
:010BCF000025
:010BD0000024
:010BD1000023
:010BD2000022
:010BD3000021
:010BD400011F
:010BD500011E
:010BD600001E
:010BD700011C
:010BD800001C
:010BD900011A
:010BDA000119
:010BDB000019
:010BDC000018
:010BDD000017
:010BDE000016
:010BDF000015
:010BE0000014
:010BE1000013
:010BE2000012
:010BE3000011
:010BE4000010
:010BE500000F
:010BE600000E
:010BE700000D
:010BE800000C
:010BE900010A
:010BEA000109
:010BEB000108
:010BEC000107
:010BED000106
:010BEE000006
:010BEF000005
:010BF0000004
:010BF1000003
:010BF2000002
:010BF3000001
:010BF4000000
:010BF50000FF
:010BF60000FE
:010BF70000FD
:010BF80000FC
:010BF90001FA
:010BFA0001F9
:010BFB0001F8
:010BFC0001F7
:010BFD0001F6
:010BFE0001F5
:010BFF0001F4
:010C000000F3
:010C010000F2
:010C020000F1
:010C030000F0
:010C040001EE
:010C050001ED
:010C060001EC
:010C070001EB
:010C080001EA
:010C090001E9
:010C0A0001E8
:010C0B0001E7
:010C0C0001E6
:010C0D0001E5
:010C0E0001E4
:010C0F0000E4
:010C100000E3
:010C110000E2
:010C120000E1
:010C130000E0
:010C140000DF
:010C150000DE
:010C160000DD
:010C170000DC
:010C180000DB
:010C190000DA
:010C1A0000D9
:010C1B0001D7
:010C1C0001D6
:010C1D0001D5
:010C1E0001D4
:010C1F0001D3
:010C200001D2
:010C210001D1
:010C220001D0
:010C230001CF
:010C240000CF
:010C250000CE
:010C260000CD
:010C270000CC
:010C280000CB
:010C290000CA
:010C2A0001C8
:010C2B0001C7
:010C2C0001C6
:010C2D0001C5
:010C2E0001C4
:010C2F0000C4
:010C300000C3
:010C310000C2
:010C320000C1
:010C330000C0
:010C340000BF
:010C350000BE
:010C360000BD
:010C370000BC
:010C380000BB
:010C390000BA
:010C3A0000B9
:010C3B0000B8
:010C3C0000B7
:010C3D0000B6
:010C3E0000B5
:010C3F0000B4
:010C400000B3
:010C410000B2
:010C420001B0
:010C430001AF
:010C440000AF
:010C450001AD
:010C460001AC
:010C470001AB
:010C480001AA
:010C490000AA
:010C4A0000A9
:010C4B0000A8
:010C4C0000A7
:010C4D0000A6
:010C4E0000A5
:010C4F0000A4
:010C500000A3
:010C510000A2
:010C520000A1
:010C530000A0
:010C5400009F
:010C5500009E
:010C5600019C
:010C5700019B
:010C5800019A
:010C59000199
:010C5A000099
:010C5B000098
:010C5C000097
:010C5D000096
:010C5E000194
:010C5F000193
:010C60000192
:010C61000191
:010C62000190
:010C63000090
:010C6400008F
:010C6500008E
:010C6600008D
:010C6700008C
:010C6800008B
:010C6900008A
:010C6A000188
:010C6B000187
:010C6C000186
:010C6D000185
:010C6E000085
:010C6F000084
:010C70000083
:010C71000082
:010C72000081
:010C7300017F
:010C7400017E
:010C7500017D
:010C7600017C
:010C7700017B
:010C7800017A
:010C79000179
:010C7A000079
:010C7B000078
:010C7C000077
:010C7D000076
:010C7E000075
:010C7F000074
:010C80000073
:010C81000072
:010C82000071
:010C83000070
:010C8400006F
:010C8500006E
:010C8600006D
:010C8700016B
:010C8800016A
:010C89000169
:010C8A000168
:010C8B000167
:010C8C000166
:010C8D000066
:010C8E000065
:010C8F000064
:010C90000063
:010C91000062
:010C92000061
:010C93000060
:010C9400005F
:010C9500005E
:010C9600005D
:010C9700005C
:010C9800005B
:010C9900005A
:010C9A000158
:010C9B000157
:010C9C000156
:010C9D000155
:010C9E000154
:010C9F000153
:010CA0000152
:010CA1000151
:010CA2000150
:010CA300014F
:010CA400014E
:010CA500014D
:010CA600004D
:010CA700004C
:010CA800004B
:010CA900004A
:010CAA000049
:010CAB000048
:010CAC000047
:010CAD000046
:010CAE000045
:010CAF000044
:010CB0000142
:010CB1000141
:010CB2000140
:010CB300013F
:010CB400013E
:010CB500013D
:010CB600003D
:010CB700003C
:010CB800003B
:010CB900003A
:010CBA000039
:010CBB000038
:010CBC000037
:010CBD000036
:010CBE000035
:010CBF000133
:010CC0000132
:010CC1000131
:010CC2000130
:010CC300012F
:010CC400012E
:010CC500012D
:010CC600012C
:010CC700012B
:010CC800012A
:010CC900002A
:010CCA000029
:010CCB000028
:010CCC000126
:010CCD000125
:010CCE000124
:010CCF000123
:010CD0000122
:010CD1000121
:010CD2000120
:010CD300011F
:010CD400011E
:010CD500011D
:010CD600011C
:010CD700011B
:010CD800011A
:010CD900001A
:010CDA000019
:010CDB000018
:010CDC000017
:010CDD000016
:010CDE000015
:010CDF000014
:010CE0000013
:010CE1000111
:010CE2000110
:010CE300010F
:010CE400010E
:010CE500010D
:010CE600010C
:010CE700010B
:010CE800010A
:010CE9000109
:010CEA000108
:010CEB000107
:010CEC000106
:010CED000006
:010CEE000005
:010CEF000004
:010CF0000003
:010CF1000101
:010CF2000100
:010CF30001FF
:010CF40001FE
:010CF50001FD
:010CF60001FC
:010CF70001FB
:010CF80000FB
:010CF90000FA
:010CFA0000F9
:010CFB0000F8
:010CFC0000F7
:010CFD0000F6
:010CFE0000F5
:010CFF0000F4
:010D000000F2
:010D010000F1
:010D020000F0
:010D030000EF
:010D040000EE
:010D050000ED
:010D060000EC
:010D070000EB
:010D080000EA
:010D090001E8
:010D0A0001E7
:010D0B0001E6
:010D0C0001E5
:010D0D0001E4
:010D0E0001E3
:010D0F0001E2
:010D100001E1
:010D110001E0
:010D120001DF
:010D130001DE
:010D140000DE
:010D150000DD
:010D160000DC
:010D170000DB
:010D180000DA
:010D190000D9
:010D1A0000D8
:010D1B0000D7
:010D1C0001D5
:010D1D0001D4
:010D1E0001D3
:010D1F0001D2
:010D200001D1
:010D210001D0
:010D220001CF
:010D230001CE
:010D240000CE
:010D250000CD
:010D260001CB
:010D270001CA
:010D280001C9
:010D290001C8
:010D2A0001C7
:010D2B0000C7
:010D2C0000C6
:010D2D0000C5
:010D2E0000C4
:010D2F0000C3
:010D300000C2
:010D310001C0
:010D320001BF
:010D330001BE
:010D340001BD
:010D350000BD
:010D360000BC
:010D370000BB
:010D380000BA
:010D390000B9
:010D3A0000B8
:010D3B0000B7
:010D3C0001B5
:010D3D0001B4
:010D3E0001B3
:010D3F0001B2
:010D400001B1
:010D410001B0
:010D420001AF
:010D430000AF
:010D440000AE
:010D450000AD
:010D460000AC
:010D470000AB
:010D480000AA
:010D490000A9
:010D4A0000A8
:010D4B0000A7
:010D4C0000A6
:010D4D0000A5
:010D4E0001A3
:010D4F0001A2
:010D500001A1
:010D510001A0
:010D5200019F
:010D5300019E
:010D5400019D
:010D5500009D
:010D5600009C
:010D5700009B
:010D5800009A
:010D59000099
:010D5A000098
:010D5B000097
:010D5C000096
:010D5D000095
:010D5E000094
:010D5F000093
:010D60000092
:010D61000091
:010D6200018F
:010D6300018E
:010D6400018D
:010D6500018C
:010D6600018B
:010D6700018A
:010D68000189
:010D69000188
:010D6A000187
:010D6B000186
:010D6C000185
:010D6D000184
:010D6E000183
:010D6F000083
:010D70000082
:010D71000081
:010D72000080
:010D7300007F
:010D7400007E
:010D7500007D
:010D7600007C
:010D7700007B
:010D78000179
:010D79000178
:010D7A000177
:010D7B000176
:010D7C000175
:010D7D000174
:010D7E000173
:010D7F000073
:010D80000072
:010D81000071
:010D82000070
:010D8300006F
:010D8400006E
:010D8500006D
:010D8600006C
:010D8700016A
:010D88000169
:010D89000168
:010D8A000167
:010D8B000166
:010D8C000165
:010D8D000164
:010D8E000163
:010D8F000162
:010D90000161
:010D91000160
:010D92000060
:010D9300015E
:010D9400015D
:010D9500015C
:010D9600015B
:010D9700015A
:010D98000159
:010D99000158
:010D9A000157
:010D9B000156
:010D9C000155
:010D9D000154
:010D9E000153
:010D9F000152
:010DA0000151
:010DA1000051
:010DA2000050
:010DA300004F
:010DA400004E
:010DA500004D
:010DA600004C
:010DA700014A
:010DA8000149
:010DA9000148
:010DAA000147
:010DAB000146
:010DAC000145
:010DAD000144
:010DAE000143
:010DAF000142
:010DB0000141
:010DB1000140
:010DB200013F
:010DB300013E
:010DB400003E
:010DB500003D
:010DB600003C
:010DB700003B
:010DB800003A
:010DB9000138
:010DBA000137
:010DBB000136
:010DBC000135
:010DBD000134
:010DBE000133
:010DBF000033
:010DC0000032
:010DC1000031
:010DC2000030
:010DC300002F
:010DC400002E
:010DC500002D
:010DC600002C
:010DC700002B
:010DC800002A
:010DC9000029
:010DCA000028
:010DCB000027
:010DCC000026
:010DCD000025
:010DCE000024
:010DCF000023
:010DD0000022
:010DD1000120
:010DD200011F
:010DD300011E
:010DD400011D
:010DD500011C
:010DD600011B
:010DD700011A
:010DD8000119
:010DD9000118
:010DDA000117
:010DDB000116
:010DDC000115
:010DDD000015
:010DDE000014
:010DDF000013
:010DE0000012
:010DE1000011
:010DE200010F
:010DE300010E
:010DE400010D
:010DE500010C
:010DE600010B
:010DE700010A
:010DE8000109
:010DE9000108
:010DEA000107
:010DEB000106
:010DEC000105
:010DED000104
:010DEE000004
:010DEF000102
:010DF0000101
:010DF1000100
:010DF20001FF
:010DF30001FE
:010DF40000FE
:010DF50000FD
:010DF60000FC
:010DF70000FB
:010DF80001F9
:010DF90001F8
:010DFA0001F7
:010DFB0001F6
:010DFC0001F5
:010DFD0000F5
:010DFE0000F4
:010DFF0000F3
:010E000000F1
:010E010000F0
:010E020000EF
:010E030000EE
:010E040000ED
:010E050001EB
:010E060001EA
:010E070001E9
:010E080001E8
:010E090001E7
:010E0A0001E6
:010E0B0000E6
:010E0C0000E5
:010E0D0000E4
:010E0E0000E3
:010E0F0000E2
:010E100000E1
:010E110000E0
:010E120000DF
:010E130000DE
:010E140000DD
:010E150000DC
:010E160001DA
:010E170001D9
:010E180001D8
:010E190001D7
:010E1A0001D6
:010E1B0001D5
:010E1C0000D5
:010E1D0000D4
:010E1E0000D3
:010E1F0000D2
:010E200000D1
:010E210000D0
:010E220000CF
:010E230000CE
:010E240000CD
:010E250000CC
:010E260000CB
:010E270000CA
:010E280000C9
:010E290000C8
:010E2A0001C6
:010E2B0001C5
:010E2C0001C4
:010E2D0001C3
:010E2E0001C2
:010E2F0001C1
:010E300001C0
:010E310001BF
:010E320001BE
:010E330001BD
:010E340001BC
:010E350001BB
:010E360001BA
:010E370000BA
:010E380000B9
:010E390000B8
:010E3A0000B7
:010E3B0000B6
:010E3C0000B5
:010E3D0000B4
:010E3E0000B3
:010E3F0001B1
:010E400001B0
:010E410001AF
:010E420001AE
:010E430001AD
:010E440001AC
:010E450001AB
:010E460001AA
:010E470000AA
:010E480000A9
:010E490000A8
:010E4A0000A7
:010E4B0000A6
:010E4C0000A5
:010E4D0001A3
:010E4E0001A2
:010E4F0001A1
:010E500001A0
:010E5100019F
:010E5200019E
:010E5300009E
:010E5400009D
:010E5500019B
:010E5600019A
:010E57000199
:010E58000198
:010E59000098
:010E5A000097
:010E5B000195
:010E5C000194
:010E5D000193
:010E5E000192
:010E5F000191
:010E60000190
:010E6100018F
:010E6200018E
:010E6300018D
:010E6400018C
:010E6500018B
:010E6600018A
:010E67000189
:010E68000188
:010E69000187
:010E6A000087
:010E6B000086
:010E6C000085
:010E6D000084
:010E6E000182
:010E6F000181
:010E70000180
:010E7100017F
:010E7200017E
:010E7300017D
:010E7400017C
:010E7500017B
:010E7600017A
:010E77000179
:010E78000178
:010E79000177
:010E7A000176
:010E7B000175
:010E7C000174
:010E7D000074
:010E7E000073
:010E7F000072
:010E80000170
:010E8100016F
:010E8200016E
:010E8300016D
:010E8400016C
:010E8500016B
:010E8600016A
:010E8700006A
:010E88000069
:010E89000068
:010E8A000067
:010E8B000066
:010E8C000065
:010E8D000064
:010E8E000063
:010E8F000062
:010E90000061
:010E91000060
:010E9200005F
:010E9300005E
:010E9400005D
:010E9500005C
:010E9600005B
:010E9700005A
:010E98000059
:010E99000157
:010E9A000156
:010E9B000155
:010E9C000154
:010E9D000153
:010E9E000152
:010E9F000151
:010EA0000150
:010EA100014F
:010EA200014E
:010EA300014D
:010EA400014C
:010EA500014B
:010EA600004B
:010EA700004A
:010EA8000049
:010EA9000147
:010EAA000146
:010EAB000145
:010EAC000144
:010EAD000143
:010EAE000142
:010EAF000141
:010EB0000140
:010EB100013F
:010EB200013E
:010EB300013D
:010EB400013C
:010EB500013B
:010EB600003B
:010EB7000139
:010EB8000138
:010EB9000137
:010EBA000136
:010EBB000135
:010EBC000035
:010EBD000034
:010EBE000033
:010EBF000131
:010EC0000130
:010EC100012F
:010EC200012E
:010EC300012D
:010EC400002D
:010EC500002C
:010EC600002B
:010EC700002A
:010EC8000029
:010EC9000028
:010ECA000027
:010ECB000026
:010ECC000025
:010ECD000123
:010ECE000122
:010ECF000121
:010ED0000120
:010ED100011F
:010ED200011E
:010ED300001E
:010ED400001D
:010ED500001C
:010ED600001B
:010ED700001A
:010ED8000019
:010ED9000018
:010EDA000017
:010EDB000016
:010EDC000015
:010EDD000014
:010EDE000112
:010EDF000111
:010EE0000110
:010EE100010F
:010EE200010E
:010EE300010D
:010EE400000D
:010EE500000C
:010EE600000B
:010EE700000A
:010EE8000009
:010EE9000008
:010EEA000007
:010EEB000006
:010EEC000005
:010EED000004
:010EEE000003
:010EEF000002
:010EF0000001
:010EF1000000
:010EF20001FE
:010EF30001FD
:010EF40001FC
:010EF50001FB
:010EF60000FB
:010EF70000FA
:010EF80000F9
:010EF90000F8
:010EFA0000F7
:010EFB0001F5
:010EFC0001F4
:010EFD0001F3
:010EFE0001F2
:010EFF0001F1
:010F000000F0
:010F010000EF
:010F020000EE
:010F030000ED
:010F040000EC
:010F050000EB
:010F060000EA
:010F070001E8
:010F080001E7
:010F090001E6
:010F0A0001E5
:010F0B0001E4
:010F0C0001E3
:010F0D0001E2
:010F0E0001E1
:010F0F0000E1
:010F100000E0
:010F110000DF
:010F120000DE
:010F130000DD
:010F140000DC
:010F150001DA
:010F160001D9
:010F170001D8
:010F180001D7
:010F190001D6
:010F1A0000D6
:010F1B0000D5
:010F1C0000D4
:010F1D0000D3
:010F1E0000D2
:010F1F0000D1
:010F200001CF
:010F210000CF
:010F220000CE
:010F230001CC
:010F240001CB
:010F250001CA
:010F260001C9
:010F270001C8
:010F280001C7
:010F290001C6
:010F2A0001C5
:010F2B0001C4
:010F2C0001C3
:010F2D0001C2
:010F2E0001C1
:010F2F0001C0
:010F300001BF
:010F310001BE
:010F320000BE
:010F330000BD
:010F340000BC
:010F350001BA
:010F360001B9
:010F370001B8
:010F380001B7
:010F390001B6
:010F3A0001B5
:010F3B0001B4
:010F3C0001B3
:010F3D0000B3
:010F3E0000B2
:010F3F0000B1
:010F400000B0
:010F410000AF
:010F420000AE
:010F430000AD
:010F440000AC
:010F450000AB
:010F460000AA
:010F470000A9
:010F480001A7
:010F490001A6
:010F4A0001A5
:010F4B0001A4
:010F4C0001A3
:010F4D0001A2
:010F4E0001A1
:010F4F0001A0
:010F500000A0
:010F5100009F
:010F5200009E
:010F5300009D
:010F5400009C
:010F5500009B
:010F5600009A
:010F57000099
:010F58000098
:010F59000097
:010F5A000096
:010F5B000095
:010F5C000094
:010F5D000093
:010F5E000092
:010F5F000091
:010F6000018F
:010F6100018E
:010F6200018D
:010F6300018C
:010F6400018B
:010F6500018A
:010F6600008A
:010F67000188
:010F68000187
:010F69000186
:010F6A000185
:010F6B000184
:010F6C000183
:010F6D000182
:010F6E000082
:010F6F000081
:010F70000080
:010F7100017E
:010F7200017D
:010F7300017C
:010F7400017B
:010F7500017A
:010F76000179
:010F77000079
:010F78000078
:010F79000176
:010F7A000175
:010F7B000174
:010F7C000173
:010F7D000172
:010F7E000171
:010F7F000071
:010F8000016F
:010F8100016E
:010F8200016D
:010F8300016C
:010F8400006C
:010F8500006B
:010F86000169
:010F87000168
:010F88000167
:010F89000166
:010F8A000165
:010F8B000164
:010F8C000064
:010F8D000063
:010F8E000062
:010F8F000061
:010F90000060
:010F9100005F
:010F9200005E
:010F9300005D
:010F9400005C
:010F9500015A
:010F96000159
:010F97000158
:010F98000157
:010F99000156
:010F9A000155
:010F9B000055
:010F9C000054
:010F9D000053
:010F9E000052
:010F9F000051
:010FA0000050
:010FA100004F
:010FA200004E
:010FA300004D
:010FA400004C
:010FA500014A
:010FA6000149
:010FA7000148
:010FA8000147
:010FA9000146
:010FAA000145
:010FAB000045
:010FAC000044
:010FAD000043
:010FAE000042
:010FAF000041
:010FB0000040
:010FB100003F
:010FB200003E
:010FB300003D
:010FB400003C
:010FB500003B
:010FB600003A
:010FB7000039
:010FB8000038
:010FB9000037
:010FBA000135
:010FBB000134
:010FBC000133
:010FBD000033
:010FBE000032
:010FBF000031
:010FC0000030
:010FC100002F
:010FC200002E
:010FC300012C
:010FC400012B
:010FC500012A
:010FC6000129
:010FC7000029
:010FC8000028
:010FC9000027
:010FCA000026
:010FCB000025
:010FCC000024
:010FCD000023
:010FCE000121
:010FCF000120
:010FD000011F
:010FD100011E
:010FD200011D
:010FD300011C
:010FD400011B
:010FD500011A
:010FD6000119
:010FD7000019
:010FD8000018
:010FD9000017
:010FDA000016
:010FDB000015
:010FDC000014
:010FDD000112
:010FDE000111
:010FDF000110
:010FE000010F
:010FE100000F
:010FE200000E
:010FE300000D
:010FE400000C
:010FE500000B
:010FE600000A
:010FE7000009
:010FE8000008
:010FE9000007
:010FEA000006
:010FEB000104
:010FEC000103
:010FED000102
:010FEE000101
:010FEF000100
:010FF0000000
:010FF10000FF
:010FF20000FE
:010FF30000FD
:010FF40000FC
:010FF50001FA
:010FF60001F9
:010FF70001F8
:010FF80001F7
:010FF90001F6
:010FFA0000F6
:010FFB0000F5
:010FFC0001F3
:010FFD0001F2
:010FFE0001F1
:010FFF0001F0
:0110000001EE
:0110010001ED
:0110020001EC
:0110030000EC
:0110040000EB
:0110050000EA
:0110060000E9
:0110070000E8
:0110080000E7
:0110090000E6
:01100A0000E5
:01100B0000E4
:01100C0000E3
:01100D0000E2
:01100E0000E1
:01100F0001DF
:0110100001DE
:0110110001DD
:0110120001DC
:0110130001DB
:0110140001DA
:0110150001D9
:0110160001D8
:0110170001D7
:0110180000D7
:0110190000D6
:01101A0000D5
:01101B0000D4
:01101C0000D3
:01101D0000D2
:01101E0000D1
:01101F0000D0
:0110200000CF
:0110210000CE
:0110220000CD
:0110230000CC
:0110240000CB
:0110250000CA
:0110260000C9
:0110270000C8
:0110280001C6
:0110290001C5
:01102A0001C4
:01102B0001C3
:01102C0001C2
:01102D0000C2
:01102E0000C1
:01102F0000C0
:0110300000BF
:0110310000BE
:0110320001BC
:0110330001BB
:0110340001BA
:0110350001B9
:0110360000B9
:0110370000B8
:0110380001B6
:0110390001B5
:01103A0001B4
:01103B0001B3
:01103C0001B2
:01103D0001B1
:01103E0000B1
:01103F0000B0
:0110400000AF
:0110410000AE
:0110420000AD
:0110430001AB
:0110440001AA
:0110450001A9
:0110460001A8
:0110470001A7
:0110480001A6
:0110490001A5
:01104A0001A4
:01104B0001A3
:01104C0001A2
:01104D0000A2
:01104E0001A0
:01104F00019F
:01105000019E
:01105100019D
:01105200019C
:01105300009C
:01105400009B
:01105500009A
:011056000099
:011057000098
:011058000097
:011059000096
:01105A000095
:01105B000094
:01105C000093
:01105D000092
:01105E000190
:01105F00018F
:01106000018E
:01106100018D
:01106200018C
:01106300018B
:01106400008B
:01106500008A
:011066000089
:011067000088
:011068000087
:011069000086
:01106A000085
:01106B000084
:01106C000083
:01106D000181
:01106E000180
:01106F00017F
:01107000017E
:01107100017D
:01107200017C
:01107300007C
:01107400007B
:01107500007A
:011076000079
:011077000078
:011078000077
:011079000076
:01107A000075
:01107B000074
:01107C000073
:01107D000072
:01107E000071
:01107F000070
:01108000006F
:01108100016D
:01108200016C
:01108300016B
:01108400016A
:011085000169
:011086000069
:011087000068
:011088000067
:011089000066
:01108A000065
:01108B000163
:01108C000162
:01108D000161
:01108E000160
:01108F00015F
:01109000005F
:01109100005E
:01109200005D
:01109300005C
:01109400005B
:01109500005A
:011096000158
:011097000157
:011098000156
:011099000155
:01109A000154
:01109B000153
:01109C000152
:01109D000151
:01109E000150
:01109F000050
:0110A000004F
:0110A100004E
:0110A200004D
:0110A300004C
:0110A400004B
:0110A5000149
:0110A6000148
:0110A7000147
:0110A8000146
:0110A9000046
:0110AA000045
:0110AB000044
:0110AC000043
:0110AD000042
:0110AE000041
:0110AF000040
:0110B000003F
:0110B100003E
:0110B200003D
:0110B300013B
:0110B400013A
:0110B5000139
:0110B6000138
:0110B7000137
:0110B8000037
:0110B9000036
:0110BA000035
:0110BB000034
:0110BC000033
:0110BD000131
:0110BE000130
:0110BF00012F
:0110C000012E
:0110C100012D
:0110C200002D
:0110C300012B
:0110C400012A
:0110C5000129
:0110C6000128
:0110C7000127
:0110C8000126
:0110C9000026
:0110CA000025
:0110CB000024
:0110CC000023
:0110CD000022
:0110CE000021
:0110CF000020
:0110D000001F
:0110D100001E
:0110D200001D
:0110D300001C
:0110D400001B
:0110D500001A
:0110D6000019
:0110D7000117
:0110D8000116
:0110D9000115
:0110DA000114
:0110DB000113
:0110DC000112
:0110DD000111
:0110DE000110
:0110DF00010F
:0110E000000F
:0110E100000E
:0110E200000D
:0110E300000C
:0110E400000B
:0110E500000A
:0110E6000009
:0110E7000008
:0110E8000007
:0110E9000006
:0110EA000005
:0110EB000004
:0110EC000003
:0110ED000002
:0110EE000001
:0110EF000000
:0110F00001FE
:0110F10001FD
:0110F20001FC
:0110F30001FB
:0110F40001FA
:0110F50000FA
:0110F60000F9
:0110F70000F8
:0110F80000F7
:0110F90001F5
:0110FA0001F4
:0110FB0001F3
:0110FC0001F2
:0110FD0001F1
:0110FE0000F1
:0110FF0001EF
:0111000001ED
:0111010001EC
:0111020001EB
:0111030001EA
:0111040000EA
:0111050000E9
:0111060000E8
:0111070000E7
:0111080000E6
:0111090000E5
:01110A0000E4
:01110B0001E2
:01110C0001E1
:01110D0001E0
:01110E0001DF
:01110F0001DE
:0111100000DE
:0111110001DC
:0111120001DB
:0111130001DA
:0111140001D9
:0111150001D8
:0111160001D7
:0111170001D6
:0111180001D5
:0111190001D4
:01111A0000D4
:01111B0000D3
:01111C0000D2
:01111D0000D1
:01111E0000D0
:01111F0000CF
:0111200000CE
:0111210000CD
:0111220000CC
:0111230000CB
:0111240000CA
:0111250000C9
:0111260001C7
:0111270001C6
:0111280001C5
:0111290001C4
:01112A0001C3
:01112B0001C2
:01112C0000C2
:01112D0000C1
:01112E0000C0
:01112F0000BF
:0111300000BE
:0111310000BD
:0111320000BC
:0111330000BB
:0111340000BA
:0111350001B8
:0111360001B7
:0111370001B6
:0111380001B5
:0111390001B4
:01113A0001B3
:01113B0000B3
:01113C0000B2
:01113D0000B1
:01113E0000B0
:01113F0000AF
:0111400000AE
:0111410000AD
:0111420000AC
:0111430000AB
:0111440000AA
:0111450000A9
:0111460000A8
:0111470000A7
:0111480000A6
:0111490001A4
:01114A0001A3
:01114B0001A2
:01114C0001A1
:01114D0000A1
:01114E0000A0
:01114F00009F
:01115000009E
:01115100009D
:01115200019B
:01115300019A
:011154000199
:011155000198
:011156000197
:011157000196
:011158000096
:011159000095
:01115A000094
:01115B000093
:01115C000092
:01115D000091
:01115E00018F
:01115F00018E
:01116000018D
:01116100018C
:01116200018B
:01116300018A
:011164000189
:011165000188
:011166000187
:011167000186
:011168000086
:011169000085
:01116A000084
:01116B000083
:01116C000082
:01116D000180
:01116E00017F
:01116F00017E
:01117000017D
:01117100017C
:01117200007C
:01117300007B
:01117400007A
:011175000079
:011176000078
:011177000077
:011178000076
:011179000075
:01117A000173
:01117B000172
:01117C000171
:01117D000170
:01117E00016F
:01117F00016E
:01118000006E
:01118100006D
:01118200006C
:01118300006B
:01118400006A
:011185000168
:011186000167
:011187000166
:011188000165
:011189000164
:01118A000064
:01118B000162
:01118C000161
:01118D000160
:01118E00015F
:01118F00015E
:01119000005E
:01119100005D
:01119200005C
:01119300005B
:01119400005A
:011195000059
:011196000058
:011197000057
:011198000056
:011199000055
:01119A000054
:01119B000053
:01119C000052
:01119D000051
:01119E00014F
:01119F00014E
:0111A000014D
:0111A100014C
:0111A200014B
:0111A300014A
:0111A4000149
:0111A5000148
:0111A6000147
:0111A7000146
:0111A8000046
:0111A9000045
:0111AA000044
:0111AB000043
:0111AC000042
:0111AD000041
:0111AE000040
:0111AF00003F
:0111B000003E
:0111B100003D
:0111B200003C
:0111B300003B
:0111B400003A
:0111B5000039
:0111B6000038
:0111B7000037
:0111B8000135
:0111B9000134
:0111BA000133
:0111BB000132
:0111BC000032
:0111BD000031
:0111BE000030
:0111BF00002F
:0111C000002E
:0111C100012C
:0111C200012B
:0111C300012A
:0111C4000129
:0111C5000128
:0111C6000028
:0111C7000126
:0111C8000125
:0111C9000124
:0111CA000123
:0111CB000122
:0111CC000022
:0111CD000021
:0111CE000020
:0111CF00001F
:0111D000001E
:0111D100001D
:0111D200001C
:0111D300001B
:0111D4000119
:0111D5000118
:0111D6000117
:0111D7000116
:0111D8000016
:0111D9000114
:0111DA000113
